{
  "_format": "hh-sol-artifact-1",
  "contractName": "CasinoCore",
  "sourceName": "contracts/CasinoCore.sol",
  "abi": [
    {
      "inputs": [
        {
          "internalType": "address",
          "name": "_mtx",
          "type": "address"
        },
        {
          "internalType": "address",
          "name": "_liquidity",
          "type": "address"
        },
        {
          "internalType": "address",
          "name": "_reserve",
          "type": "address"
        },
        {
          "internalType": "address",
          "name": "_rng",
          "type": "address"
        },
        {
          "internalType": "uint256",
          "name": "_minBet",
          "type": "uint256"
        },
        {
          "internalType": "uint256",
          "name": "_maxBet",
          "type": "uint256"
        },
        {
          "internalType": "address",
          "name": "_dev",
          "type": "address"
        },
        {
          "internalType": "address",
          "name": "_governance",
          "type": "address"
        }
      ],
      "stateMutability": "nonpayable",
      "type": "constructor"
    },
    {
      "inputs": [],
      "name": "dev",
      "outputs": [
        {
          "internalType": "address",
          "name": "",
          "type": "address"
        }
      ],
      "stateMutability": "view",
      "type": "function"
    },
    {
      "inputs": [],
      "name": "devPercent",
      "outputs": [
        {
          "internalType": "uint256",
          "name": "",
          "type": "uint256"
        }
      ],
      "stateMutability": "view",
      "type": "function"
    },
    {
      "inputs": [],
      "name": "governance",
      "outputs": [
        {
          "internalType": "address",
          "name": "",
          "type": "address"
        }
      ],
      "stateMutability": "view",
      "type": "function"
    },
    {
      "inputs": [],
      "name": "liquidity",
      "outputs": [
        {
          "internalType": "contract ILiquidityRouter",
          "name": "",
          "type": "address"
        }
      ],
      "stateMutability": "view",
      "type": "function"
    },
    {
      "inputs": [],
      "name": "liquidityPercent",
      "outputs": [
        {
          "internalType": "uint256",
          "name": "",
          "type": "uint256"
        }
      ],
      "stateMutability": "view",
      "type": "function"
    },
    {
      "inputs": [],
      "name": "maxBet",
      "outputs": [
        {
          "internalType": "uint256",
          "name": "",
          "type": "uint256"
        }
      ],
      "stateMutability": "view",
      "type": "function"
    },
    {
      "inputs": [],
      "name": "minBet",
      "outputs": [
        {
          "internalType": "uint256",
          "name": "",
          "type": "uint256"
        }
      ],
      "stateMutability": "view",
      "type": "function"
    },
    {
      "inputs": [],
      "name": "mtx",
      "outputs": [
        {
          "internalType": "contract IERC20",
          "name": "",
          "type": "address"
        }
      ],
      "stateMutability": "view",
      "type": "function"
    },
    {
      "inputs": [],
      "name": "payoutPercent",
      "outputs": [
        {
          "internalType": "uint256",
          "name": "",
          "type": "uint256"
        }
      ],
      "stateMutability": "view",
      "type": "function"
    },
    {
      "inputs": [
        {
          "internalType": "uint256",
          "name": "amount",
          "type": "uint256"
        },
        {
          "internalType": "bytes",
          "name": "gameData",
          "type": "bytes"
        }
      ],
      "name": "placeBet",
      "outputs": [],
      "stateMutability": "nonpayable",
      "type": "function"
    },
    {
      "inputs": [],
      "name": "reserve",
      "outputs": [
        {
          "internalType": "contract ICasinoReserve",
          "name": "",
          "type": "address"
        }
      ],
      "stateMutability": "view",
      "type": "function"
    },
    {
      "inputs": [],
      "name": "reservePercent",
      "outputs": [
        {
          "internalType": "uint256",
          "name": "",
          "type": "uint256"
        }
      ],
      "stateMutability": "view",
      "type": "function"
    },
    {
      "inputs": [],
      "name": "rng",
      "outputs": [
        {
          "internalType": "contract IRNGEngine",
          "name": "",
          "type": "address"
        }
      ],
      "stateMutability": "view",
      "type": "function"
    },
    {
      "inputs": [
        {
          "internalType": "uint256",
          "name": "payout",
          "type": "uint256"
        },
        {
          "internalType": "uint256",
          "name": "liquidity_",
          "type": "uint256"
        },
        {
          "internalType": "uint256",
          "name": "reserve_",
          "type": "uint256"
        },
        {
          "internalType": "uint256",
          "name": "dev_",
          "type": "uint256"
        }
      ],
      "name": "updatePercentages",
      "outputs": [],
      "stateMutability": "nonpayable",
      "type": "function"
    }
  ],
  "bytecode": "0x60806040526055600455600a600555600360065560026007553480156200002557600080fd5b50604051620015b0380380620015b083398181016040528101906200004b919062000291565b876000806101000a81548173ffffffffffffffffffffffffffffffffffffffff021916908373ffffffffffffffffffffffffffffffffffffffff16021790555086600160006101000a81548173ffffffffffffffffffffffffffffffffffffffff021916908373ffffffffffffffffffffffffffffffffffffffff16021790555085600260006101000a81548173ffffffffffffffffffffffffffffffffffffffff021916908373ffffffffffffffffffffffffffffffffffffffff16021790555084600360006101000a81548173ffffffffffffffffffffffffffffffffffffffff021916908373ffffffffffffffffffffffffffffffffffffffff160217905550836008819055508260098190555081600a60006101000a81548173ffffffffffffffffffffffffffffffffffffffff021916908373ffffffffffffffffffffffffffffffffffffffff16021790555080600b60006101000a81548173ffffffffffffffffffffffffffffffffffffffff021916908373ffffffffffffffffffffffffffffffffffffffff16021790555050505050505050506200035a565b600080fd5b600073ffffffffffffffffffffffffffffffffffffffff82169050919050565b60006200021e82620001f1565b9050919050565b620002308162000211565b81146200023c57600080fd5b50565b600081519050620002508162000225565b92915050565b6000819050919050565b6200026b8162000256565b81146200027757600080fd5b50565b6000815190506200028b8162000260565b92915050565b600080600080600080600080610100898b031215620002b557620002b4620001ec565b5b6000620002c58b828c016200023f565b9850506020620002d88b828c016200023f565b9750506040620002eb8b828c016200023f565b9650506060620002fe8b828c016200023f565b9550506080620003118b828c016200027a565b94505060a0620003248b828c016200027a565b93505060c0620003378b828c016200023f565b92505060e06200034a8b828c016200023f565b9150509295985092959890939650565b611246806200036a6000396000f3fe608060405234801561001057600080fd5b50600436106100ea5760003560e01c8063ab3146991161008c578063d605787b11610066578063d605787b14610219578063ebb32ec014610237578063f8c7746314610253578063fc3c28af14610271576100ea565b8063ab314699146101bf578063b0683755146101dd578063cd3293de146101fb576100ea565b806350c86219116100c857806350c86219146101475780635aa6e6751461016557806391cca3db146101835780639619367d146101a1576100ea565b80631a686502146100ef5780632e5b21681461010d57806335d2a2691461012b575b600080fd5b6100f761028f565b6040516101049190610a8a565b60405180910390f35b6101156102b5565b6040516101229190610abe565b60405180910390f35b61014560048036038101906101409190610b74565b6102bb565b005b61014f610811565b60405161015c9190610abe565b60405180910390f35b61016d610817565b60405161017a9190610bf5565b60405180910390f35b61018b61083d565b6040516101989190610bf5565b60405180910390f35b6101a9610863565b6040516101b69190610abe565b60405180910390f35b6101c7610869565b6040516101d49190610c31565b60405180910390f35b6101e561088d565b6040516101f29190610abe565b60405180910390f35b610203610893565b6040516102109190610c6d565b60405180910390f35b6102216108b9565b60405161022e9190610ca9565b60405180910390f35b610251600480360381019061024c9190610cc4565b6108df565b005b61025b6109f5565b6040516102689190610abe565b60405180910390f35b6102796109fb565b6040516102869190610abe565b60405180910390f35b600160009054906101000a900473ffffffffffffffffffffffffffffffffffffffff1681565b60095481565b600854831015610300576040517f08c379a00000000000000000000000000000000000000000000000000000000081526004016102f790610d88565b60405180910390fd5b600954831115610345576040517f08c379a000000000000000000000000000000000000000000000000000000000815260040161033c90610df4565b60405180910390fd5b60008054906101000a900473ffffffffffffffffffffffffffffffffffffffff1673ffffffffffffffffffffffffffffffffffffffff166323b872dd3330866040518463ffffffff1660e01b81526004016103a293929190610e14565b6020604051808303816000875af11580156103c1573d6000803e3d6000fd5b505050506040513d601f19601f820116820180604052508101906103e59190610e83565b610424576040517f08c379a000000000000000000000000000000000000000000000000000000000815260040161041b90610efc565b60405180910390fd5b60006064600454856104369190610f4b565b6104409190610fbc565b905060006064600554866104549190610f4b565b61045e9190610fbc565b905060006064600654876104729190610f4b565b61047c9190610fbc565b905060006064600754886104909190610f4b565b61049a9190610fbc565b9050600160009054906101000a900473ffffffffffffffffffffffffffffffffffffffff1673ffffffffffffffffffffffffffffffffffffffff166351c6590a846040518263ffffffff1660e01b81526004016104f79190610abe565b600060405180830381600087803b15801561051157600080fd5b505af1158015610525573d6000803e3d6000fd5b50505050600260009054906101000a900473ffffffffffffffffffffffffffffffffffffffff1673ffffffffffffffffffffffffffffffffffffffff1663b6b55f25836040518263ffffffff1660e01b81526004016105849190610abe565b600060405180830381600087803b15801561059e57600080fd5b505af11580156105b2573d6000803e3d6000fd5b5050505060008111156106bf5760008054906101000a900473ffffffffffffffffffffffffffffffffffffffff1673ffffffffffffffffffffffffffffffffffffffff1663a9059cbb600a60009054906101000a900473ffffffffffffffffffffffffffffffffffffffff16836040518363ffffffff1660e01b815260040161063c929190610fed565b6020604051808303816000875af115801561065b573d6000803e3d6000fd5b505050506040513d601f19601f8201168201806040525081019061067f9190610e83565b6106be576040517f08c379a00000000000000000000000000000000000000000000000000000000081526004016106b590611062565b60405180910390fd5b5b6000600360009054906101000a900473ffffffffffffffffffffffffffffffffffffffff1673ffffffffffffffffffffffffffffffffffffffff1663e405618688886040518363ffffffff1660e01b815260040161071e9291906110e0565b6020604051808303816000875af115801561073d573d6000803e3d6000fd5b505050506040513d601f19601f820116820180604052508101906107619190610e83565b9050801561080757600061077486610a01565b9050600260009054906101000a900473ffffffffffffffffffffffffffffffffffffffff1673ffffffffffffffffffffffffffffffffffffffff16634e958d0533836040518363ffffffff1660e01b81526004016107d3929190610fed565b600060405180830381600087803b1580156107ed57600080fd5b505af1158015610801573d6000803e3d6000fd5b50505050505b5050505050505050565b60045481565b600b60009054906101000a900473ffffffffffffffffffffffffffffffffffffffff1681565b600a60009054906101000a900473ffffffffffffffffffffffffffffffffffffffff1681565b60085481565b60008054906101000a900473ffffffffffffffffffffffffffffffffffffffff1681565b60055481565b600260009054906101000a900473ffffffffffffffffffffffffffffffffffffffff1681565b600360009054906101000a900473ffffffffffffffffffffffffffffffffffffffff1681565b600b60009054906101000a900473ffffffffffffffffffffffffffffffffffffffff1673ffffffffffffffffffffffffffffffffffffffff163373ffffffffffffffffffffffffffffffffffffffff161461096f576040517f08c379a000000000000000000000000000000000000000000000000000000000815260040161096690611150565b60405180910390fd5b60648183858761097f9190611170565b6109899190611170565b6109939190611170565b146109d3576040517f08c379a00000000000000000000000000000000000000000000000000000000081526004016109ca906111f0565b60405180910390fd5b8360048190555082600581905550816006819055508060078190555050505050565b60065481565b60075481565b6000819050919050565b600073ffffffffffffffffffffffffffffffffffffffff82169050919050565b6000819050919050565b6000610a50610a4b610a4684610a0b565b610a2b565b610a0b565b9050919050565b6000610a6282610a35565b9050919050565b6000610a7482610a57565b9050919050565b610a8481610a69565b82525050565b6000602082019050610a9f6000830184610a7b565b92915050565b6000819050919050565b610ab881610aa5565b82525050565b6000602082019050610ad36000830184610aaf565b92915050565b600080fd5b600080fd5b610aec81610aa5565b8114610af757600080fd5b50565b600081359050610b0981610ae3565b92915050565b600080fd5b600080fd5b600080fd5b60008083601f840112610b3457610b33610b0f565b5b8235905067ffffffffffffffff811115610b5157610b50610b14565b5b602083019150836001820283011115610b6d57610b6c610b19565b5b9250929050565b600080600060408486031215610b8d57610b8c610ad9565b5b6000610b9b86828701610afa565b935050602084013567ffffffffffffffff811115610bbc57610bbb610ade565b5b610bc886828701610b1e565b92509250509250925092565b6000610bdf82610a0b565b9050919050565b610bef81610bd4565b82525050565b6000602082019050610c0a6000830184610be6565b92915050565b6000610c1b82610a57565b9050919050565b610c2b81610c10565b82525050565b6000602082019050610c466000830184610c22565b92915050565b6000610c5782610a57565b9050919050565b610c6781610c4c565b82525050565b6000602082019050610c826000830184610c5e565b92915050565b6000610c9382610a57565b9050919050565b610ca381610c88565b82525050565b6000602082019050610cbe6000830184610c9a565b92915050565b60008060008060808587031215610cde57610cdd610ad9565b5b6000610cec87828801610afa565b9450506020610cfd87828801610afa565b9350506040610d0e87828801610afa565b9250506060610d1f87828801610afa565b91505092959194509250565b600082825260208201905092915050565b7f4265742062656c6f77206d696e696d756d000000000000000000000000000000600082015250565b6000610d72601183610d2b565b9150610d7d82610d3c565b602082019050919050565b60006020820190508181036000830152610da181610d65565b9050919050565b7f4265742061626f7665206d6178696d756d000000000000000000000000000000600082015250565b6000610dde601183610d2b565b9150610de982610da8565b602082019050919050565b60006020820190508181036000830152610e0d81610dd1565b9050919050565b6000606082019050610e296000830186610be6565b610e366020830185610be6565b610e436040830184610aaf565b949350505050565b60008115159050919050565b610e6081610e4b565b8114610e6b57600080fd5b50565b600081519050610e7d81610e57565b92915050565b600060208284031215610e9957610e98610ad9565b5b6000610ea784828501610e6e565b91505092915050565b7f5472616e73666572206661696c65640000000000000000000000000000000000600082015250565b6000610ee6600f83610d2b565b9150610ef182610eb0565b602082019050919050565b60006020820190508181036000830152610f1581610ed9565b9050919050565b7f4e487b7100000000000000000000000000000000000000000000000000000000600052601160045260246000fd5b6000610f5682610aa5565b9150610f6183610aa5565b9250828202610f6f81610aa5565b91508282048414831517610f8657610f85610f1c565b5b5092915050565b7f4e487b7100000000000000000000000000000000000000000000000000000000600052601260045260246000fd5b6000610fc782610aa5565b9150610fd283610aa5565b925082610fe257610fe1610f8d565b5b828204905092915050565b60006040820190506110026000830185610be6565b61100f6020830184610aaf565b9392505050565b7f446576207061796d656e74206661696c65640000000000000000000000000000600082015250565b600061104c601283610d2b565b915061105782611016565b602082019050919050565b6000602082019050818103600083015261107b8161103f565b9050919050565b600082825260208201905092915050565b82818337600083830152505050565b6000601f19601f8301169050919050565b60006110bf8385611082565b93506110cc838584611093565b6110d5836110a2565b840190509392505050565b600060208201905081810360008301526110fb8184866110b3565b90509392505050565b7f4e6f7420676f7665726e616e6365000000000000000000000000000000000000600082015250565b600061113a600e83610d2b565b915061114582611104565b602082019050919050565b600060208201905081810360008301526111698161112d565b9050919050565b600061117b82610aa5565b915061118683610aa5565b925082820190508082111561119e5761119d610f1c565b5b92915050565b7f53756d206d757374206265203130300000000000000000000000000000000000600082015250565b60006111da600f83610d2b565b91506111e5826111a4565b602082019050919050565b60006020820190508181036000830152611209816111cd565b905091905056fea26469706673582212207f20ec55438df5d7e6c9090d05dd506d8dca2d64e9a9c9539bfc32e64c587b7b64736f6c63430008140033",
  "linkReferences": {},
  "deployedLinkReferences": {}
}