{
  "_format": "hh-sol-artifact-1",
  "contractName": "CasinoReserve",
  "sourceName": "contracts/CasinoModules.sol",
  "abi": [
    {
      "inputs": [
        {
          "internalType": "address",
          "name": "_mtx",
          "type": "address"
        },
        {
          "internalType": "uint256",
          "name": "_reserveCap",
          "type": "uint256"
        },
        {
          "internalType": "address",
          "name": "_casinoCore",
          "type": "address"
        }
      ],
      "stateMutability": "nonpayable",
      "type": "constructor"
    },
    {
      "inputs": [],
      "name": "casinoCore",
      "outputs": [
        {
          "internalType": "address",
          "name": "",
          "type": "address"
        }
      ],
      "stateMutability": "view",
      "type": "function"
    },
    {
      "inputs": [
        {
          "internalType": "uint256",
          "name": "amount",
          "type": "uint256"
        }
      ],
      "name": "deposit",
      "outputs": [],
      "stateMutability": "nonpayable",
      "type": "function"
    },
    {
      "inputs": [],
      "name": "mtx",
      "outputs": [
        {
          "internalType": "contract IERC20",
          "name": "",
          "type": "address"
        }
      ],
      "stateMutability": "view",
      "type": "function"
    },
    {
      "inputs": [
        {
          "internalType": "address",
          "name": "player",
          "type": "address"
        },
        {
          "internalType": "uint256",
          "name": "amount",
          "type": "uint256"
        }
      ],
      "name": "payWinner",
      "outputs": [],
      "stateMutability": "nonpayable",
      "type": "function"
    },
    {
      "inputs": [],
      "name": "reserveBalance",
      "outputs": [
        {
          "internalType": "uint256",
          "name": "",
          "type": "uint256"
        }
      ],
      "stateMutability": "view",
      "type": "function"
    },
    {
      "inputs": [],
      "name": "reserveCap",
      "outputs": [
        {
          "internalType": "uint256",
          "name": "",
          "type": "uint256"
        }
      ],
      "stateMutability": "view",
      "type": "function"
    },
    {
      "inputs": [],
      "name": "reserveHealth",
      "outputs": [
        {
          "internalType": "uint256",
          "name": "",
          "type": "uint256"
        }
      ],
      "stateMutability": "view",
      "type": "function"
    }
  ],
  "bytecode": "0x608060405234801561001057600080fd5b50604051610a6c380380610a6c8339818101604052810190610032919061015b565b826000806101000a81548173ffffffffffffffffffffffffffffffffffffffff021916908373ffffffffffffffffffffffffffffffffffffffff1602179055508160028190555080600360006101000a81548173ffffffffffffffffffffffffffffffffffffffff021916908373ffffffffffffffffffffffffffffffffffffffff1602179055505050506101ae565b600080fd5b600073ffffffffffffffffffffffffffffffffffffffff82169050919050565b60006100f2826100c7565b9050919050565b610102816100e7565b811461010d57600080fd5b50565b60008151905061011f816100f9565b92915050565b6000819050919050565b61013881610125565b811461014357600080fd5b50565b6000815190506101558161012f565b92915050565b600080600060608486031215610174576101736100c2565b5b600061018286828701610110565b935050602061019386828701610146565b92505060406101a486828701610110565b9150509250925092565b6108af806101bd6000396000f3fe608060405234801561001057600080fd5b506004361061007d5760003560e01c80636cc88dbb1161005b5780636cc88dbb146100da578063a10954fe146100f8578063ab31469914610116578063b6b55f25146101345761007d565b80632223a5da146100825780633a35ba03146100a05780634e958d05146100be575b600080fd5b61008a610150565b6040516100979190610444565b60405180910390f35b6100a8610156565b6040516100b59190610444565b60405180910390f35b6100d860048036038101906100d391906104ee565b610160565b005b6100e261032f565b6040516100ef919061053d565b60405180910390f35b610100610355565b60405161010d9190610444565b60405180910390f35b61011e61035b565b60405161012b91906105b7565b60405180910390f35b61014e600480360381019061014991906105d2565b61037f565b005b60025481565b6000600154905090565b600360009054906101000a900473ffffffffffffffffffffffffffffffffffffffff1673ffffffffffffffffffffffffffffffffffffffff163373ffffffffffffffffffffffffffffffffffffffff16146101f0576040517f08c379a00000000000000000000000000000000000000000000000000000000081526004016101e79061065c565b60405180910390fd5b806001541015610235576040517f08c379a000000000000000000000000000000000000000000000000000000000815260040161022c906106c8565b60405180910390fd5b80600160008282546102479190610717565b9250508190555060008054906101000a900473ffffffffffffffffffffffffffffffffffffffff1673ffffffffffffffffffffffffffffffffffffffff1663a9059cbb83836040518363ffffffff1660e01b81526004016102a992919061074b565b6020604051808303816000875af11580156102c8573d6000803e3d6000fd5b505050506040513d601f19601f820116820180604052508101906102ec91906107ac565b61032b576040517f08c379a000000000000000000000000000000000000000000000000000000000815260040161032290610825565b60405180910390fd5b5050565b600360009054906101000a900473ffffffffffffffffffffffffffffffffffffffff1681565b60015481565b60008054906101000a900473ffffffffffffffffffffffffffffffffffffffff1681565b600360009054906101000a900473ffffffffffffffffffffffffffffffffffffffff1673ffffffffffffffffffffffffffffffffffffffff163373ffffffffffffffffffffffffffffffffffffffff161461040f576040517f08c379a00000000000000000000000000000000000000000000000000000000081526004016104069061065c565b60405180910390fd5b80600160008282546104219190610845565b9250508190555050565b6000819050919050565b61043e8161042b565b82525050565b60006020820190506104596000830184610435565b92915050565b600080fd5b600073ffffffffffffffffffffffffffffffffffffffff82169050919050565b600061048f82610464565b9050919050565b61049f81610484565b81146104aa57600080fd5b50565b6000813590506104bc81610496565b92915050565b6104cb8161042b565b81146104d657600080fd5b50565b6000813590506104e8816104c2565b92915050565b600080604083850312156105055761050461045f565b5b6000610513858286016104ad565b9250506020610524858286016104d9565b9150509250929050565b61053781610484565b82525050565b6000602082019050610552600083018461052e565b92915050565b6000819050919050565b600061057d61057861057384610464565b610558565b610464565b9050919050565b600061058f82610562565b9050919050565b60006105a182610584565b9050919050565b6105b181610596565b82525050565b60006020820190506105cc60008301846105a8565b92915050565b6000602082840312156105e8576105e761045f565b5b60006105f6848285016104d9565b91505092915050565b600082825260208201905092915050565b7f4e6f7420617574686f72697a6564000000000000000000000000000000000000600082015250565b6000610646600e836105ff565b915061065182610610565b602082019050919050565b6000602082019050818103600083015261067581610639565b9050919050565b7f496e73756666696369656e742072657365727665000000000000000000000000600082015250565b60006106b26014836105ff565b91506106bd8261067c565b602082019050919050565b600060208201905081810360008301526106e1816106a5565b9050919050565b7f4e487b7100000000000000000000000000000000000000000000000000000000600052601160045260246000fd5b60006107228261042b565b915061072d8361042b565b9250828203905081811115610745576107446106e8565b5b92915050565b6000604082019050610760600083018561052e565b61076d6020830184610435565b9392505050565b60008115159050919050565b61078981610774565b811461079457600080fd5b50565b6000815190506107a681610780565b92915050565b6000602082840312156107c2576107c161045f565b5b60006107d084828501610797565b91505092915050565b7f4d5458207472616e73666572206661696c656400000000000000000000000000600082015250565b600061080f6013836105ff565b915061081a826107d9565b602082019050919050565b6000602082019050818103600083015261083e81610802565b9050919050565b60006108508261042b565b915061085b8361042b565b9250828201905080821115610873576108726106e8565b5b9291505056fea2646970667358221220f2158bf901632f0c7f7ef29b512bd46a0d3c98bb0b94480815593e5c55e9150664736f6c63430008140033",
  "linkReferences": {},
  "deployedLinkReferences": {}
}