{
  "_format": "hh-sol-artifact-1",
  "contractName": "LiquidityRouter",
  "sourceName": "contracts/CasinoModules.sol",
  "abi": [
    {
      "inputs": [
        {
          "internalType": "address",
          "name": "_mtx",
          "type": "address"
        },
        {
          "internalType": "address",
          "name": "_dexPool",
          "type": "address"
        }
      ],
      "stateMutability": "nonpayable",
      "type": "constructor"
    },
    {
      "inputs": [
        {
          "internalType": "uint256",
          "name": "amount",
          "type": "uint256"
        }
      ],
      "name": "addLiquidity",
      "outputs": [],
      "stateMutability": "nonpayable",
      "type": "function"
    },
    {
      "inputs": [],
      "name": "dexPool",
      "outputs": [
        {
          "internalType": "address",
          "name": "",
          "type": "address"
        }
      ],
      "stateMutability": "view",
      "type": "function"
    },
    {
      "inputs": [],
      "name": "mtx",
      "outputs": [
        {
          "internalType": "contract IERC20",
          "name": "",
          "type": "address"
        }
      ],
      "stateMutability": "view",
      "type": "function"
    }
  ],
  "bytecode": "0x608060405234801561001057600080fd5b506040516105f43803806105f48339818101604052810190610032919061011d565b816000806101000a81548173ffffffffffffffffffffffffffffffffffffffff021916908373ffffffffffffffffffffffffffffffffffffffff16021790555080600160006101000a81548173ffffffffffffffffffffffffffffffffffffffff021916908373ffffffffffffffffffffffffffffffffffffffff160217905550505061015d565b600080fd5b600073ffffffffffffffffffffffffffffffffffffffff82169050919050565b60006100ea826100bf565b9050919050565b6100fa816100df565b811461010557600080fd5b50565b600081519050610117816100f1565b92915050565b60008060408385031215610134576101336100ba565b5b600061014285828601610108565b925050602061015385828601610108565b9150509250929050565b6104888061016c6000396000f3fe608060405234801561001057600080fd5b50600436106100415760003560e01c80633d2fa2d21461004657806351c6590a14610064578063ab31469914610080575b600080fd5b61004e61009e565b60405161005b919061022d565b60405180910390f35b61007e60048036038101906100799190610283565b6100c4565b005b6100886101c8565b604051610095919061030f565b60405180910390f35b600160009054906101000a900473ffffffffffffffffffffffffffffffffffffffff1681565b60008054906101000a900473ffffffffffffffffffffffffffffffffffffffff1673ffffffffffffffffffffffffffffffffffffffff166323b872dd33600160009054906101000a900473ffffffffffffffffffffffffffffffffffffffff16846040518463ffffffff1660e01b815260040161014393929190610339565b6020604051808303816000875af1158015610162573d6000803e3d6000fd5b505050506040513d601f19601f8201168201806040525081019061018691906103a8565b6101c5576040517f08c379a00000000000000000000000000000000000000000000000000000000081526004016101bc90610432565b60405180910390fd5b50565b60008054906101000a900473ffffffffffffffffffffffffffffffffffffffff1681565b600073ffffffffffffffffffffffffffffffffffffffff82169050919050565b6000610217826101ec565b9050919050565b6102278161020c565b82525050565b6000602082019050610242600083018461021e565b92915050565b600080fd5b6000819050919050565b6102608161024d565b811461026b57600080fd5b50565b60008135905061027d81610257565b92915050565b60006020828403121561029957610298610248565b5b60006102a78482850161026e565b91505092915050565b6000819050919050565b60006102d56102d06102cb846101ec565b6102b0565b6101ec565b9050919050565b60006102e7826102ba565b9050919050565b60006102f9826102dc565b9050919050565b610309816102ee565b82525050565b60006020820190506103246000830184610300565b92915050565b6103338161024d565b82525050565b600060608201905061034e600083018661021e565b61035b602083018561021e565b610368604083018461032a565b949350505050565b60008115159050919050565b61038581610370565b811461039057600080fd5b50565b6000815190506103a28161037c565b92915050565b6000602082840312156103be576103bd610248565b5b60006103cc84828501610393565b91505092915050565b600082825260208201905092915050565b7f4d5458207472616e7366657246726f6d206661696c6564000000000000000000600082015250565b600061041c6017836103d5565b9150610427826103e6565b602082019050919050565b6000602082019050818103600083015261044b8161040f565b905091905056fea2646970667358221220797f8e61a04f8168d4126dcafad86a155351796e8fb8a47c6ec0c867df8627b664736f6c63430008140033",
  "linkReferences": {},
  "deployedLinkReferences": {}
}