{
  "_format": "hh-sol-artifact-1",
  "contractName": "RNGEngine",
  "sourceName": "contracts/CasinoModules.sol",
  "abi": [
    {
      "inputs": [],
      "name": "clientSeed",
      "outputs": [
        {
          "internalType": "bytes32",
          "name": "",
          "type": "bytes32"
        }
      ],
      "stateMutability": "view",
      "type": "function"
    },
    {
      "inputs": [
        {
          "internalType": "bytes32",
          "name": "hash",
          "type": "bytes32"
        }
      ],
      "name": "commitServerSeed",
      "outputs": [],
      "stateMutability": "nonpayable",
      "type": "function"
    },
    {
      "inputs": [],
      "name": "nonce",
      "outputs": [
        {
          "internalType": "uint256",
          "name": "",
          "type": "uint256"
        }
      ],
      "stateMutability": "view",
      "type": "function"
    },
    {
      "inputs": [
        {
          "internalType": "bytes",
          "name": "gameData",
          "type": "bytes"
        }
      ],
      "name": "resolve",
      "outputs": [
        {
          "internalType": "bool",
          "name": "",
          "type": "bool"
        }
      ],
      "stateMutability": "nonpayable",
      "type": "function"
    },
    {
      "inputs": [
        {
          "internalType": "bytes32",
          "name": "seed",
          "type": "bytes32"
        }
      ],
      "name": "revealServerSeed",
      "outputs": [
        {
          "internalType": "bool",
          "name": "",
          "type": "bool"
        }
      ],
      "stateMutability": "view",
      "type": "function"
    },
    {
      "inputs": [],
      "name": "serverSeedHash",
      "outputs": [
        {
          "internalType": "bytes32",
          "name": "",
          "type": "bytes32"
        }
      ],
      "stateMutability": "view",
      "type": "function"
    }
  ],
  "bytecode": "0x608060405234801561001057600080fd5b506105a1806100206000396000f3fe608060405234801561001057600080fd5b50600436106100625760003560e01c80636e453097146100675780637382901e14610097578063a457c2ae146100b5578063affed0e0146100d3578063e4056186146100f1578063e92d065e14610121575b600080fd5b610081600480360381019061007c919061024d565b61013d565b60405161008e9190610295565b60405180910390f35b61009f610170565b6040516100ac91906102bf565b60405180910390f35b6100bd610176565b6040516100ca91906102bf565b60405180910390f35b6100db61017c565b6040516100e891906102f3565b60405180910390f35b61010b60048036038101906101069190610373565b610182565b6040516101189190610295565b60405180910390f35b61013b6004803603810190610136919061024d565b6101e8565b005b600080548260405160200161015291906103e1565b60405160208183030381529060405280519060200120149050919050565b60005481565b60015481565b60025481565b60008060005460015460025486866040516020016101a495949392919061045c565b6040516020818303038152906040528051906020012090506001600260008282546101cf91906104d7565b925050819055506101df816101f2565b91505092915050565b8060008190555050565b60008060028360001c610205919061053a565b149050919050565b600080fd5b600080fd5b6000819050919050565b61022a81610217565b811461023557600080fd5b50565b60008135905061024781610221565b92915050565b6000602082840312156102635761026261020d565b5b600061027184828501610238565b91505092915050565b60008115159050919050565b61028f8161027a565b82525050565b60006020820190506102aa6000830184610286565b92915050565b6102b981610217565b82525050565b60006020820190506102d460008301846102b0565b92915050565b6000819050919050565b6102ed816102da565b82525050565b600060208201905061030860008301846102e4565b92915050565b600080fd5b600080fd5b600080fd5b60008083601f8401126103335761033261030e565b5b8235905067ffffffffffffffff8111156103505761034f610313565b5b60208301915083600182028301111561036c5761036b610318565b5b9250929050565b6000806020838503121561038a5761038961020d565b5b600083013567ffffffffffffffff8111156103a8576103a7610212565b5b6103b48582860161031d565b92509250509250929050565b6000819050919050565b6103db6103d682610217565b6103c0565b82525050565b60006103ed82846103ca565b60208201915081905092915050565b6000819050919050565b610417610412826102da565b6103fc565b82525050565b600081905092915050565b82818337600083830152505050565b6000610443838561041d565b9350610450838584610428565b82840190509392505050565b600061046882886103ca565b60208201915061047882876103ca565b6020820191506104888286610406565b602082019150610499828486610437565b91508190509695505050505050565b7f4e487b7100000000000000000000000000000000000000000000000000000000600052601160045260246000fd5b60006104e2826102da565b91506104ed836102da565b9250828201905080821115610505576105046104a8565b5b92915050565b7f4e487b7100000000000000000000000000000000000000000000000000000000600052601260045260246000fd5b6000610545826102da565b9150610550836102da565b9250826105605761055f61050b565b5b82820690509291505056fea2646970667358221220ca1d8f68fb3d5a3865f81ba4ce78cabd61f493fba3997d5463c29b212682174d64736f6c63430008140033",
  "linkReferences": {},
  "deployedLinkReferences": {}
}